{
  "contractName": "DevoirCashback",
  "abi": [
    {
      "constant": true,
      "inputs": [
        {
          "name": "",
          "type": "string"
        }
      ],
      "name": "balance",
      "outputs": [
        {
          "name": "",
          "type": "uint256"
        }
      ],
      "payable": false,
      "stateMutability": "view",
      "type": "function"
    },
    {
      "constant": true,
      "inputs": [
        {
          "name": "",
          "type": "address"
        }
      ],
      "name": "addressAssigns",
      "outputs": [
        {
          "name": "",
          "type": "string"
        }
      ],
      "payable": false,
      "stateMutability": "view",
      "type": "function"
    },
    {
      "constant": true,
      "inputs": [
        {
          "name": "",
          "type": "string"
        }
      ],
      "name": "emailAssigns",
      "outputs": [
        {
          "name": "",
          "type": "address"
        }
      ],
      "payable": false,
      "stateMutability": "view",
      "type": "function"
    },
    {
      "constant": false,
      "inputs": [
        {
          "name": "email",
          "type": "string"
        }
      ],
      "name": "deposit",
      "outputs": [],
      "payable": true,
      "stateMutability": "payable",
      "type": "function"
    },
    {
      "constant": false,
      "inputs": [],
      "name": "withdraw",
      "outputs": [],
      "payable": true,
      "stateMutability": "payable",
      "type": "function"
    },
    {
      "constant": false,
      "inputs": [
        {
          "name": "email",
          "type": "string"
        }
      ],
      "name": "addAssignment",
      "outputs": [],
      "payable": false,
      "stateMutability": "nonpayable",
      "type": "function"
    },
    {
      "constant": true,
      "inputs": [
        {
          "name": "email",
          "type": "string"
        }
      ],
      "name": "getAssignmentForEmail",
      "outputs": [
        {
          "name": "",
          "type": "address"
        },
        {
          "name": "",
          "type": "uint256"
        }
      ],
      "payable": false,
      "stateMutability": "view",
      "type": "function"
    },
    {
      "constant": true,
      "inputs": [
        {
          "name": "owner",
          "type": "address"
        }
      ],
      "name": "getAssignmentForAddress",
      "outputs": [
        {
          "name": "",
          "type": "string"
        },
        {
          "name": "",
          "type": "uint256"
        }
      ],
      "payable": false,
      "stateMutability": "view",
      "type": "function"
    }
  ],
  "bytecode": "0x6080604052336000806101000a81548173ffffffffffffffffffffffffffffffffffffffff021916908373ffffffffffffffffffffffffffffffffffffffff16021790555034801561005057600080fd5b506110d6806100606000396000f3fe60806040526004361061007b5760003560e01c8063a26e11861161004e578063a26e1186146102ff578063aa4e7b8c146103ba578063babd605d14610484578063f5fe0cfb146105935761007b565b806315225391146100805780632bd16a7d146101485780633ccfd60b146102195780633d80b53214610223575b600080fd5b34801561008c57600080fd5b50610146600480360360208110156100a357600080fd5b81019080803590602001906401000000008111156100c057600080fd5b8201836020820111156100d257600080fd5b803590602001918460018302840111640100000000831117156100f457600080fd5b91908080601f016020809104026020016040519081016040528093929190818152602001838380828437600081840152601f19601f82011690508083019250505050505050919291929050505061069b565b005b34801561015457600080fd5b506101976004803603602081101561016b57600080fd5b81019080803573ffffffffffffffffffffffffffffffffffffffff1690602001909291905050506108c6565b6040518080602001838152602001828103825284818151815260200191508051906020019080838360005b838110156101dd5780820151818401526020810190506101c2565b50505050905090810190601f16801561020a5780820380516001836020036101000a031916815260200191505b50935050505060405180910390f35b610221610a1b565b005b34801561022f57600080fd5b506102e96004803603602081101561024657600080fd5b810190808035906020019064010000000081111561026357600080fd5b82018360208201111561027557600080fd5b8035906020019184600183028401116401000000008311171561029757600080fd5b91908080601f016020809104026020016040519081016040528093929190818152602001838380828437600081840152601f19601f820116905080830192505050505050509192919290505050610c8c565b6040518082815260200191505060405180910390f35b6103b86004803603602081101561031557600080fd5b810190808035906020019064010000000081111561033257600080fd5b82018360208201111561034457600080fd5b8035906020019184600183028401116401000000008311171561036657600080fd5b91908080601f016020809104026020016040519081016040528093929190818152602001838380828437600081840152601f19601f820116905080830192505050505050509192919290505050610cba565b005b3480156103c657600080fd5b50610409600480360360208110156103dd57600080fd5b81019080803573ffffffffffffffffffffffffffffffffffffffff169060200190929190505050610e0c565b6040518080602001828103825283818151815260200191508051906020019080838360005b8381101561044957808201518184015260208101905061042e565b50505050905090810190601f1680156104765780820380516001836020036101000a031916815260200191505b509250505060405180910390f35b34801561049057600080fd5b5061054a600480360360208110156104a757600080fd5b81019080803590602001906401000000008111156104c457600080fd5b8201836020820111156104d657600080fd5b803590602001918460018302840111640100000000831117156104f857600080fd5b91908080601f016020809104026020016040519081016040528093929190818152602001838380828437600081840152601f19601f820116905080830192505050505050509192919290505050610ebc565b604051808373ffffffffffffffffffffffffffffffffffffffff1673ffffffffffffffffffffffffffffffffffffffff1681526020018281526020019250505060405180910390f35b34801561059f57600080fd5b50610659600480360360208110156105b657600080fd5b81019080803590602001906401000000008111156105d357600080fd5b8201836020820111156105e557600080fd5b8035906020019184600183028401116401000000008311171561060757600080fd5b91908080601f016020809104026020016040519081016040528093929190818152602001838380828437600081840152601f19601f820116905080830192505050505050509192919290505050610fbc565b604051808273ffffffffffffffffffffffffffffffffffffffff1673ffffffffffffffffffffffffffffffffffffffff16815260200191505060405180910390f35b600073ffffffffffffffffffffffffffffffffffffffff166001826040518082805190602001908083835b602083106106e957805182526020820191506020810190506020830392506106c6565b6001836020036101000a038019825116818451168082178552505050505050905001915050908152602001604051809103902060009054906101000a900473ffffffffffffffffffffffffffffffffffffffff1673ffffffffffffffffffffffffffffffffffffffff1614156107c7576040517f08c379a00000000000000000000000000000000000000000000000000000000081526004018080602001828103825260168152602001807f4d617070696e6720616c7265616479206578697374730000000000000000000081525060200191505060405180910390fd5b336001826040518082805190602001908083835b602083106107fe57805182526020820191506020810190506020830392506107db565b6001836020036101000a038019825116818451168082178552505050505050905001915050908152602001604051809103902060006101000a81548173ffffffffffffffffffffffffffffffffffffffff021916908373ffffffffffffffffffffffffffffffffffffffff16021790555080600260003373ffffffffffffffffffffffffffffffffffffffff1673ffffffffffffffffffffffffffffffffffffffff16815260200190815260200160002090805190602001906108c2929190611005565b5050565b606060006060600260008573ffffffffffffffffffffffffffffffffffffffff1673ffffffffffffffffffffffffffffffffffffffff1681526020019081526020016000208054600181600116156101000203166002900480601f01602080910402602001604051908101604052809291908181526020018280546001816001161561010002031660029004801561099f5780601f106109745761010080835404028352916020019161099f565b820191906000526020600020905b81548152906001019060200180831161098257829003601f168201915b50505050509050806003826040518082805190602001908083835b602083106109dd57805182526020820191506020810190506020830392506109ba565b6001836020036101000a0380198251168184511680821785525050505050509050019150509081526020016040518091039020549250925050915091565b6060600260003373ffffffffffffffffffffffffffffffffffffffff1673ffffffffffffffffffffffffffffffffffffffff1681526020019081526020016000208054600181600116156101000203166002900480601f016020809104026020016040519081016040528092919081815260200182805460018160011615610100020316600290048015610af05780601f10610ac557610100808354040283529160200191610af0565b820191906000526020600020905b815481529060010190602001808311610ad357829003601f168201915b5050505050905060006003826040518082805190602001908083835b60208310610b2f5780518252602082019150602081019050602083039250610b0c565b6001836020036101000a0380198251168184511680821785525050505050509050019150509081526020016040518091039020541115610c89573373ffffffffffffffffffffffffffffffffffffffff166108fc6003836040518082805190602001908083835b60208310610bb95780518252602082019150602081019050602083039250610b96565b6001836020036101000a0380198251168184511680821785525050505050509050019150509081526020016040518091039020549081150290604051600060405180830381858888f19350505050158015610c18573d6000803e3d6000fd5b5060006003826040518082805190602001908083835b60208310610c515780518252602082019150602081019050602083039250610c2e565b6001836020036101000a0380198251168184511680821785525050505050509050019150509081526020016040518091039020819055505b50565b6003818051602081018201805184825260208301602085012081835280955050505050506000915090505481565b60003411610d30576040517f08c379a00000000000000000000000000000000000000000000000000000000081526004018080602001828103825260208152602001807f53686f756c6420626520736f6d65206173736574206174746163686d656e747381525060200191505060405180910390fd5b346003826040518082805190602001908083835b60208310610d675780518252602082019150602081019050602083039250610d44565b6001836020036101000a038019825116818451168082178552505050505050905001915050908152602001604051809103902054016003826040518082805190602001908083835b60208310610dd25780518252602082019150602081019050602083039250610daf565b6001836020036101000a03801982511681845116808217855250505050505090500191505090815260200160405180910390208190555050565b60026020528060005260406000206000915090508054600181600116156101000203166002900480601f016020809104026020016040519081016040528092919081815260200182805460018160011615610100020316600290048015610eb45780601f10610e8957610100808354040283529160200191610eb4565b820191906000526020600020905b815481529060010190602001808311610e9757829003601f168201915b505050505081565b6000806001836040518082805190602001908083835b60208310610ef55780518252602082019150602081019050602083039250610ed2565b6001836020036101000a038019825116818451168082178552505050505050905001915050908152602001604051809103902060009054906101000a900473ffffffffffffffffffffffffffffffffffffffff166003846040518082805190602001908083835b60208310610f7f5780518252602082019150602081019050602083039250610f5c565b6001836020036101000a03801982511681845116808217855250505050505090500191505090815260200160405180910390205491509150915091565b6001818051602081018201805184825260208301602085012081835280955050505050506000915054906101000a900473ffffffffffffffffffffffffffffffffffffffff1681565b828054600181600116156101000203166002900490600052602060002090601f016020900481019282601f1061104657805160ff1916838001178555611074565b82800160010185558215611074579182015b82811115611073578251825591602001919060010190611058565b5b5090506110819190611085565b5090565b6110a791905b808211156110a357600081600090555060010161108b565b5090565b9056fea165627a7a7230582063ad2e89ddc2e94926ffd8ca97753b88ee475b8404d23173476e035abf1a880e0029",
  "source": "pragma solidity ^0.5.6;\r\n\r\ncontract DevoirCashback {\r\n    address _contractOwner = msg.sender;\r\n\r\n    mapping(string => address) public emailAssigns;\r\n    mapping(address => string) public addressAssigns;\r\n    mapping(string => uint) public balance;\r\n\r\n  // Add Money\r\n  function deposit(string memory email) public payable {\r\n      require(msg.value > 0, \"Should be some asset attachments\");\r\n      balance[email] = balance[email] + msg.value;\r\n  }\r\n\r\n  // Withdraw Money\r\n  function withdraw() public payable {\r\n      string memory email = addressAssigns[msg.sender];\r\n\r\n      if (balance[email] > 0) {\r\n          msg.sender.transfer(balance[email]);\r\n          balance[email] = 0;\r\n      }\r\n  }\r\n\r\n    function addAssignment (string memory email) public {\r\n        require(emailAssigns[email] != 0x0000000000000000000000000000000000000000, \"Mapping already exists\");\r\n\r\n        emailAssigns[email] = msg.sender;\r\n        addressAssigns[msg.sender] = email;\r\n    }\r\n\r\n    function getAssignmentForEmail (string memory email) public view returns(address, uint) {\r\n        return (emailAssigns[email], balance[email]);\r\n    }\r\n\r\n    function getAssignmentForAddress (address owner) public view returns (string memory, uint) {\r\n        string memory email = addressAssigns[owner];\r\n\r\n        return (email, balance[email]);\r\n    }\r\n}\r\n",
  "sourcePath": "/mnt/c/repos/blocklords-loom-contracts/contracts/DevoirCashback.sol",
  "compiler": {
    "name": "solc",
    "version": "0.5.8+commit.23d335f2.Emscripten.clang"
  },
  "schemaVersion": "3.0.15",
  "updatedAt": "2019-10-31T13:11:31.985Z",
  "devdoc": {
    "methods": {}
  },
  "userdoc": {
    "methods": {}
  }
}